OP   |RD|RS1|IMM |  PC |   x0   |   x1   |   x2   |   x3   |   x4   |   x5   |   x6   |   x7   |   x8   |   x9   | x10   |   x11  |  x12   |   x13   |  x14   |   x15  |   x16  |   x17  |   x18  |   x19  |  x20   |   x21  |   x22  |   x23  |   x24  |   x25  |   x26  |   x27  |   x28  |   x29  |   x30  |   x31  |
ADDI   x1  x0  001 @ 0000 00000000 00000001 00000000 00000000 00000000 00000000 00000000 00000000 00000000 00000000 00000000 00000000 00000000 00000000 00000000 00000000 00000000 00000000 00000000 00000000 00000000 00000000 00000000 00000000 00000000 00000000 00000000 00000000 00000000 00000000 00000000 00000000 
ADDI   x2  x0  002 @ 0004 00000000 00000001 00000002 00000000 00000000 00000000 00000000 00000000 00000000 00000000 00000000 00000000 00000000 00000000 00000000 00000000 00000000 00000000 00000000 00000000 00000000 00000000 00000000 00000000 00000000 00000000 00000000 00000000 00000000 00000000 00000000 00000000 
ADDI   x3  x0  FFF @ 0008 00000000 00000001 00000002 FFFFFFFF 00000000 00000000 00000000 00000000 00000000 00000000 00000000 00000000 00000000 00000000 00000000 00000000 00000000 00000000 00000000 00000000 00000000 00000000 00000000 00000000 00000000 00000000 00000000 00000000 00000000 00000000 00000000 00000000 
ADDI   x4  x0  800 @ 000C 00000000 00000001 00000002 FFFFFFFF FFFFF800 00000000 00000000 00000000 00000000 00000000 00000000 00000000 00000000 00000000 00000000 00000000 00000000 00000000 00000000 00000000 00000000 00000000 00000000 00000000 00000000 00000000 00000000 00000000 00000000 00000000 00000000 00000000 
ADDI   x5  x0  7FF @ 0010 00000000 00000001 00000002 FFFFFFFF FFFFF800 000007FF 00000000 00000000 00000000 00000000 00000000 00000000 00000000 00000000 00000000 00000000 00000000 00000000 00000000 00000000 00000000 00000000 00000000 00000000 00000000 00000000 00000000 00000000 00000000 00000000 00000000 00000000 
ADDI   x6  x0  00F @ 0014 00000000 00000001 00000002 FFFFFFFF FFFFF800 000007FF 0000000F 00000000 00000000 00000000 00000000 00000000 00000000 00000000 00000000 00000000 00000000 00000000 00000000 00000000 00000000 00000000 00000000 00000000 00000000 00000000 00000000 00000000 00000000 00000000 00000000 00000000 
ADDI   x7  x0  0F0 @ 0018 00000000 00000001 00000002 FFFFFFFF FFFFF800 000007FF 0000000F 000000F0 00000000 00000000 00000000 00000000 00000000 00000000 00000000 00000000 00000000 00000000 00000000 00000000 00000000 00000000 00000000 00000000 00000000 00000000 00000000 00000000 00000000 00000000 00000000 00000000 
ADDI   x8  x0  100 @ 001C 00000000 00000001 00000002 FFFFFFFF FFFFF800 000007FF 0000000F 000000F0 00000100 00000000 00000000 00000000 00000000 00000000 00000000 00000000 00000000 00000000 00000000 00000000 00000000 00000000 00000000 00000000 00000000 00000000 00000000 00000000 00000000 00000000 00000000 00000000 
ADD    x9  x1  x2  @0020 00000000 00000001 00000002 FFFFFFFF FFFFF800 000007FF 0000000F 000000F0 00000100 00000003 00000000 00000000 00000000 00000000 00000000 00000000 00000000 00000000 00000000 00000000 00000000 00000000 00000000 00000000 00000000 00000000 00000000 00000000 00000000 00000000 00000000 00000000 
ADD    x10 x5  x4  @0024 00000000 00000001 00000002 FFFFFFFF FFFFF800 000007FF 0000000F 000000F0 00000100 00000003 FFFFFFFF 00000000 00000000 00000000 00000000 00000000 00000000 00000000 00000000 00000000 00000000 00000000 00000000 00000000 00000000 00000000 00000000 00000000 00000000 00000000 00000000 00000000 
ADD    x11 x3  x3  @0028 00000000 00000001 00000002 FFFFFFFF FFFFF800 000007FF 0000000F 000000F0 00000100 00000003 FFFFFFFF FFFFFFFE 00000000 00000000 00000000 00000000 00000000 00000000 00000000 00000000 00000000 00000000 00000000 00000000 00000000 00000000 00000000 00000000 00000000 00000000 00000000 00000000 
SUB    x12 x2  x1  @002C 00000000 00000001 00000002 FFFFFFFF FFFFF800 000007FF 0000000F 000000F0 00000100 00000003 FFFFFFFF FFFFFFFE 00000001 00000000 00000000 00000000 00000000 00000000 00000000 00000000 00000000 00000000 00000000 00000000 00000000 00000000 00000000 00000000 00000000 00000000 00000000 00000000 
SUB    x13 x1  x2  @0030 00000000 00000001 00000002 FFFFFFFF FFFFF800 000007FF 0000000F 000000F0 00000100 00000003 FFFFFFFF FFFFFFFE 00000001 FFFFFFFF 00000000 00000000 00000000 00000000 00000000 00000000 00000000 00000000 00000000 00000000 00000000 00000000 00000000 00000000 00000000 00000000 00000000 00000000 
SUB    x14 x3  x5  @0034 00000000 00000001 00000002 FFFFFFFF FFFFF800 000007FF 0000000F 000000F0 00000100 00000003 FFFFFFFF FFFFFFFE 00000001 FFFFFFFF FFFFF800 00000000 00000000 00000000 00000000 00000000 00000000 00000000 00000000 00000000 00000000 00000000 00000000 00000000 00000000 00000000 00000000 00000000 
SLT    x15 x1  x2  @0038 00000000 00000001 00000002 FFFFFFFF FFFFF800 000007FF 0000000F 000000F0 00000100 00000003 FFFFFFFF FFFFFFFE 00000001 FFFFFFFF FFFFF800 00000001 00000000 00000000 00000000 00000000 00000000 00000000 00000000 00000000 00000000 00000000 00000000 00000000 00000000 00000000 00000000 00000000 
SLT    x16 x2  x1  @003C 00000000 00000001 00000002 FFFFFFFF FFFFF800 000007FF 0000000F 000000F0 00000100 00000003 FFFFFFFF FFFFFFFE 00000001 FFFFFFFF FFFFF800 00000001 00000000 00000000 00000000 00000000 00000000 00000000 00000000 00000000 00000000 00000000 00000000 00000000 00000000 00000000 00000000 00000000 
SLT    x17 x4  x5  @0040 00000000 00000001 00000002 FFFFFFFF FFFFF800 000007FF 0000000F 000000F0 00000100 00000003 FFFFFFFF FFFFFFFE 00000001 FFFFFFFF FFFFF800 00000001 00000000 00000000 00000000 00000000 00000000 00000000 00000000 00000000 00000000 00000000 00000000 00000000 00000000 00000000 00000000 00000000 
SLT    x18 x5  x4  @0044 00000000 00000001 00000002 FFFFFFFF FFFFF800 000007FF 0000000F 000000F0 00000100 00000003 FFFFFFFF FFFFFFFE 00000001 FFFFFFFF FFFFF800 00000001 00000000 00000000 00000000 00000000 00000000 00000000 00000000 00000000 00000000 00000000 00000000 00000000 00000000 00000000 00000000 00000000 
SLT    x19 x3  x0  @0048 00000000 00000001 00000002 FFFFFFFF FFFFF800 000007FF 0000000F 000000F0 00000100 00000003 FFFFFFFF FFFFFFFE 00000001 FFFFFFFF FFFFF800 00000001 00000000 00000000 00000000 00000000 00000000 00000000 00000000 00000000 00000000 00000000 00000000 00000000 00000000 00000000 00000000 00000000 
SLTU   x20 x1  x2  @004C 00000000 00000001 00000002 FFFFFFFF FFFFF800 000007FF 0000000F 000000F0 00000100 00000003 FFFFFFFF FFFFFFFE 00000001 FFFFFFFF FFFFF800 00000001 00000000 00000000 00000000 00000000 00000001 00000000 00000000 00000000 00000000 00000000 00000000 00000000 00000000 00000000 00000000 00000000 
SLTU   x21 x2  x1  @0050 00000000 00000001 00000002 FFFFFFFF FFFFF800 000007FF 0000000F 000000F0 00000100 00000003 FFFFFFFF FFFFFFFE 00000001 FFFFFFFF FFFFF800 00000001 00000000 00000000 00000000 00000000 00000001 00000000 00000000 00000000 00000000 00000000 00000000 00000000 00000000 00000000 00000000 00000000 
SLTU   x22 x3  x0  @0054 00000000 00000001 00000002 FFFFFFFF FFFFF800 000007FF 0000000F 000000F0 00000100 00000003 FFFFFFFF FFFFFFFE 00000001 FFFFFFFF FFFFF800 00000001 00000000 00000000 00000000 00000000 00000001 00000000 00000000 00000000 00000000 00000000 00000000 00000000 00000000 00000000 00000000 00000000 
SLTU   x23 x0  x3  @0058 00000000 00000001 00000002 FFFFFFFF FFFFF800 000007FF 0000000F 000000F0 00000100 00000003 FFFFFFFF FFFFFFFE 00000001 FFFFFFFF FFFFF800 00000001 00000000 00000000 00000000 00000000 00000001 00000000 00000000 00000001 00000000 00000000 00000000 00000000 00000000 00000000 00000000 00000000 
AND    x24 x6  x7  @005C 00000000 00000001 00000002 FFFFFFFF FFFFF800 000007FF 0000000F 000000F0 00000100 00000003 FFFFFFFF FFFFFFFE 00000001 FFFFFFFF FFFFF800 00000001 00000000 00000000 00000000 00000000 00000001 00000000 00000000 00000001 00000000 00000000 00000000 00000000 00000000 00000000 00000000 00000000 
AND    x25 x3  x5  @0060 00000000 00000001 00000002 FFFFFFFF FFFFF800 000007FF 0000000F 000000F0 00000100 00000003 FFFFFFFF FFFFFFFE 00000001 FFFFFFFF FFFFF800 00000001 00000000 00000000 00000000 00000000 00000001 00000000 00000000 00000001 00000000 000007FF 00000000 00000000 00000000 00000000 00000000 00000000 
OR     x26 x6  x7  @0064 00000000 00000001 00000002 FFFFFFFF FFFFF800 000007FF 0000000F 000000F0 00000100 00000003 FFFFFFFF FFFFFFFE 00000001 FFFFFFFF FFFFF800 00000001 00000000 00000000 00000000 00000000 00000001 00000000 00000000 00000001 00000000 000007FF 000000FF 00000000 00000000 00000000 00000000 00000000 
OR     x27 x3  x0  @0068 00000000 00000001 00000002 FFFFFFFF FFFFF800 000007FF 0000000F 000000F0 00000100 00000003 FFFFFFFF FFFFFFFE 00000001 FFFFFFFF FFFFF800 00000001 00000000 00000000 00000000 00000000 00000001 00000000 00000000 00000001 00000000 000007FF 000000FF FFFFFFFF 00000000 00000000 00000000 00000000 
XOR    x28 x6  x7  @006C 00000000 00000001 00000002 FFFFFFFF FFFFF800 000007FF 0000000F 000000F0 00000100 00000003 FFFFFFFF FFFFFFFE 00000001 FFFFFFFF FFFFF800 00000001 00000000 00000000 00000000 00000000 00000001 00000000 00000000 00000001 00000000 000007FF 000000FF FFFFFFFF 000000FF 00000000 00000000 00000000 
XOR    x29 x3  x5  @0070 00000000 00000001 00000002 FFFFFFFF FFFFF800 000007FF 0000000F 000000F0 00000100 00000003 FFFFFFFF FFFFFFFE 00000001 FFFFFFFF FFFFF800 00000001 00000000 00000000 00000000 00000000 00000001 00000000 00000000 00000001 00000000 000007FF 000000FF FFFFFFFF 000000FF FFFFF800 00000000 00000000 
SLL    x30 x6  x1  @0074 00000000 00000001 00000002 FFFFFFFF FFFFF800 000007FF 0000000F 000000F0 00000100 00000003 FFFFFFFF FFFFFFFE 00000001 FFFFFFFF FFFFF800 00000001 00000000 00000000 00000000 00000000 00000001 00000000 00000000 00000001 00000000 000007FF 000000FF FFFFFFFF 000000FF FFFFF800 0000001E 00000000 
SLL    x31 x7  x2  @0078 00000000 00000001 00000002 FFFFFFFF FFFFF800 000007FF 0000000F 000000F0 00000100 00000003 FFFFFFFF FFFFFFFE 00000001 FFFFFFFF FFFFF800 00000001 00000000 00000000 00000000 00000000 00000001 00000000 00000000 00000001 00000000 000007FF 000000FF FFFFFFFF 000000FF FFFFF800 0000001E 000003C0 
SRL    x10 x7  x1  @007C 00000000 00000001 00000002 FFFFFFFF FFFFF800 000007FF 0000000F 000000F0 00000100 00000003 00000078 FFFFFFFE 00000001 FFFFFFFF FFFFF800 00000001 00000000 00000000 00000000 00000000 00000001 00000000 00000000 00000001 00000000 000007FF 000000FF FFFFFFFF 000000FF FFFFF800 0000001E 000003C0 
SRL    x11 x8  x2  @0080 00000000 00000001 00000002 FFFFFFFF FFFFF800 000007FF 0000000F 000000F0 00000100 00000003 00000078 00000040 00000001 FFFFFFFF FFFFF800 00000001 00000000 00000000 00000000 00000000 00000001 00000000 00000000 00000001 00000000 000007FF 000000FF FFFFFFFF 000000FF FFFFF800 0000001E 000003C0 
SRL    x12 x3  x5  @0084 00000000 00000001 00000002 FFFFFFFF FFFFF800 000007FF 0000000F 000000F0 00000100 00000003 00000078 00000040 00000001 FFFFFFFF FFFFF800 00000001 00000000 00000000 00000000 00000000 00000001 00000000 00000000 00000001 00000000 000007FF 000000FF FFFFFFFF 000000FF FFFFF800 0000001E 000003C0 
SRA    x13 x4  x1  @0088 00000000 00000001 00000002 FFFFFFFF FFFFF800 000007FF 0000000F 000000F0 00000100 00000003 00000078 00000040 00000001 FFFFFC00 FFFFF800 00000001 00000000 00000000 00000000 00000000 00000001 00000000 00000000 00000001 00000000 000007FF 000000FF FFFFFFFF 000000FF FFFFF800 0000001E 000003C0 
SRA    x14 x3  x2  @008C 00000000 00000001 00000002 FFFFFFFF FFFFF800 000007FF 0000000F 000000F0 00000100 00000003 00000078 00000040 00000001 FFFFFC00 FFFFFFFF 00000001 00000000 00000000 00000000 00000000 00000001 00000000 00000000 00000001 00000000 000007FF 000000FF FFFFFFFF 000000FF FFFFF800 0000001E 000003C0 
SRA    x15 x5  x1  @0090 00000000 00000001 00000002 FFFFFFFF FFFFF800 000007FF 0000000F 000000F0 00000100 00000003 00000078 00000040 00000001 FFFFFC00 FFFFFFFF 000003FF 00000000 00000000 00000000 00000000 00000001 00000000 00000000 00000001 00000000 000007FF 000000FF FFFFFFFF 000000FF FFFFF800 0000001E 000003C0 
SLL    x16 x3  x1  @0094 00000000 00000001 00000002 FFFFFFFF FFFFF800 000007FF 0000000F 000000F0 00000100 00000003 00000078 00000040 00000001 FFFFFC00 FFFFFFFF 000003FF FFFFFFFE 00000000 00000000 00000000 00000001 00000000 00000000 00000001 00000000 000007FF 000000FF FFFFFFFF 000000FF FFFFF800 0000001E 000003C0 
SRL    x17 x3  x1  @0098 00000000 00000001 00000002 FFFFFFFF FFFFF800 000007FF 0000000F 000000F0 00000100 00000003 00000078 00000040 00000001 FFFFFC00 FFFFFFFF 000003FF FFFFFFFE 7FFFFFFF 00000000 00000000 00000001 00000000 00000000 00000001 00000000 000007FF 000000FF FFFFFFFF 000000FF FFFFF800 0000001E 000003C0 
SRA    x18 x3  x1  @009C 00000000 00000001 00000002 FFFFFFFF FFFFF800 000007FF 0000000F 000000F0 00000100 00000003 00000078 00000040 00000001 FFFFFC00 FFFFFFFF 000003FF FFFFFFFE 7FFFFFFF FFFFFFFF 00000000 00000001 00000000 00000000 00000001 00000000 000007FF 000000FF FFFFFFFF 000000FF FFFFF800 0000001E 000003C0 
AND    x19 x0  x0  @00A0 00000000 00000001 00000002 FFFFFFFF FFFFF800 000007FF 0000000F 000000F0 00000100 00000003 00000078 00000040 00000001 FFFFFC00 FFFFFFFF 000003FF FFFFFFFE 7FFFFFFF FFFFFFFF 00000000 00000001 00000000 00000000 00000001 00000000 000007FF 000000FF FFFFFFFF 000000FF FFFFF800 0000001E 000003C0 
OR     x20 x0  x0  @00A4 00000000 00000001 00000002 FFFFFFFF FFFFF800 000007FF 0000000F 000000F0 00000100 00000003 00000078 00000040 00000001 FFFFFC00 FFFFFFFF 000003FF FFFFFFFE 7FFFFFFF FFFFFFFF 00000000 00000000 00000000 00000000 00000001 00000000 000007FF 000000FF FFFFFFFF 000000FF FFFFF800 0000001E 000003C0 
XOR    x21 x0  x0  @00A8 00000000 00000001 00000002 FFFFFFFF FFFFF800 000007FF 0000000F 000000F0 00000100 00000003 00000078 00000040 00000001 FFFFFC00 FFFFFFFF 000003FF FFFFFFFE 7FFFFFFF FFFFFFFF 00000000 00000000 00000000 00000000 00000001 00000000 000007FF 000000FF FFFFFFFF 000000FF FFFFF800 0000001E 000003C0 
SLL    x22 x0  x1  @00AC 00000000 00000001 00000002 FFFFFFFF FFFFF800 000007FF 0000000F 000000F0 00000100 00000003 00000078 00000040 00000001 FFFFFC00 FFFFFFFF 000003FF FFFFFFFE 7FFFFFFF FFFFFFFF 00000000 00000000 00000000 00000000 00000001 00000000 000007FF 000000FF FFFFFFFF 000000FF FFFFF800 0000001E 000003C0 
SRL    x23 x0  x1  @00B0 00000000 00000001 00000002 FFFFFFFF FFFFF800 000007FF 0000000F 000000F0 00000100 00000003 00000078 00000040 00000001 FFFFFC00 FFFFFFFF 000003FF FFFFFFFE 7FFFFFFF FFFFFFFF 00000000 00000000 00000000 00000000 00000000 00000000 000007FF 000000FF FFFFFFFF 000000FF FFFFF800 0000001E 000003C0 
SRA    x24 x0  x1  @00B4 00000000 00000001 00000002 FFFFFFFF FFFFF800 000007FF 0000000F 000000F0 00000100 00000003 00000078 00000040 00000001 FFFFFC00 FFFFFFFF 000003FF FFFFFFFE 7FFFFFFF FFFFFFFF 00000000 00000000 00000000 00000000 00000000 00000000 000007FF 000000FF FFFFFFFF 000000FF FFFFF800 0000001E 000003C0 
